{"abi":[{"type":"constructor","inputs":[{"name":"vrfCoordinator","type":"address","internalType":"address"},{"name":"subscriptionId","type":"uint256","internalType":"uint256"},{"name":"keyHash","type":"bytes32","internalType":"bytes32"},{"name":"callbackGasLimit","type":"uint32","internalType":"uint32"},{"name":"requestConfirmations","type":"uint16","internalType":"uint16"}],"stateMutability":"nonpayable"},{"type":"function","name":"PUZZLE_PUBLISH_WINDOW","inputs":[],"outputs":[{"name":"","type":"uint256","internalType":"uint256"}],"stateMutability":"view"},{"type":"function","name":"acceptOwnership","inputs":[],"outputs":[],"stateMutability":"nonpayable"},{"type":"function","name":"cancelUnpublishedContest","inputs":[{"name":"contestId","type":"uint256","internalType":"uint256"}],"outputs":[],"stateMutability":"nonpayable"},{"type":"function","name":"closeContest","inputs":[{"name":"contestId","type":"uint256","internalType":"uint256"}],"outputs":[],"stateMutability":"nonpayable"},{"type":"function","name":"commitSolution","inputs":[{"name":"contestId","type":"uint256","internalType":"uint256"},{"name":"commitHash","type":"bytes32","internalType":"bytes32"}],"outputs":[],"stateMutability":"payable"},{"type":"function","name":"commits","inputs":[{"name":"","type":"uint256","internalType":"uint256"},{"name":"","type":"address","internalType":"address"}],"outputs":[{"name":"commitHash","type":"bytes32","internalType":"bytes32"},{"name":"committedAt","type":"uint256","internalType":"uint256"},{"name":"depositPaid","type":"uint256","internalType":"uint256"}],"stateMutability":"view"},{"type":"function","name":"contestStates","inputs":[{"name":"","type":"uint256","internalType":"uint256"}],"outputs":[{"name":"state","type":"uint8","internalType":"enum FirstBloodContest.ContestState"},{"name":"globalSeed","type":"bytes32","internalType":"bytes32"},{"name":"puzzleHash","type":"bytes32","internalType":"bytes32"},{"name":"randomnessCapturedAt","type":"uint256","internalType":"uint256"},{"name":"commitWindowEndsAt","type":"uint256","internalType":"uint256"},{"name":"revealWindowEndsAt","type":"uint256","internalType":"uint256"},{"name":"puzzlePublishDeadline","type":"uint256","internalType":"uint256"},{"name":"winnerCount","type":"uint8","internalType":"uint8"},{"name":"remainingPrizeWei","type":"uint256","internalType":"uint256"},{"name":"forfeitedDepositsWei","type":"uint256","internalType":"uint256"}],"stateMutability":"view"},{"type":"function","name":"contests","inputs":[{"name":"","type":"uint256","internalType":"uint256"}],"outputs":[{"name":"generatorCodeCid","type":"string","internalType":"string"},{"name":"engineVersion","type":"string","internalType":"string"},{"name":"size","type":"uint8","internalType":"uint8"},{"name":"releaseBlock","type":"uint256","internalType":"uint256"},{"name":"commitWindow","type":"uint256","internalType":"uint256"},{"name":"commitBuffer","type":"uint256","internalType":"uint256"},{"name":"revealWindow","type":"uint256","internalType":"uint256"},{"name":"topN","type":"uint8","internalType":"uint8"},{"name":"entryDepositWei","type":"uint256","internalType":"uint256"},{"name":"prizePoolWei","type":"uint256","internalType":"uint256"},{"name":"sponsor","type":"address","internalType":"address"}],"stateMutability":"view"},{"type":"function","name":"getCommitment","inputs":[{"name":"contestId","type":"uint256","internalType":"uint256"},{"name":"solver","type":"address","internalType":"address"}],"outputs":[{"name":"","type":"tuple","internalType":"struct FirstBloodContest.Commitment","components":[{"name":"commitHash","type":"bytes32","internalType":"bytes32"},{"name":"committedAt","type":"uint256","internalType":"uint256"},{"name":"depositPaid","type":"uint256","internalType":"uint256"}]}],"stateMutability":"view"},{"type":"function","name":"getContest","inputs":[{"name":"contestId","type":"uint256","internalType":"uint256"}],"outputs":[{"name":"","type":"tuple","internalType":"struct FirstBloodContest.ContestParams","components":[{"name":"generatorCodeCid","type":"string","internalType":"string"},{"name":"engineVersion","type":"string","internalType":"string"},{"name":"size","type":"uint8","internalType":"uint8"},{"name":"releaseBlock","type":"uint256","internalType":"uint256"},{"name":"commitWindow","type":"uint256","internalType":"uint256"},{"name":"commitBuffer","type":"uint256","internalType":"uint256"},{"name":"revealWindow","type":"uint256","internalType":"uint256"},{"name":"topN","type":"uint8","internalType":"uint8"},{"name":"entryDepositWei","type":"uint256","internalType":"uint256"},{"name":"prizePoolWei","type":"uint256","internalType":"uint256"},{"name":"sponsor","type":"address","internalType":"address"}]},{"name":"","type":"tuple","internalType":"struct FirstBloodContest.ContestStateData","components":[{"name":"state","type":"uint8","internalType":"enum FirstBloodContest.ContestState"},{"name":"globalSeed","type":"bytes32","internalType":"bytes32"},{"name":"puzzleHash","type":"bytes32","internalType":"bytes32"},{"name":"randomnessCapturedAt","type":"uint256","internalType":"uint256"},{"name":"commitWindowEndsAt","type":"uint256","internalType":"uint256"},{"name":"revealWindowEndsAt","type":"uint256","internalType":"uint256"},{"name":"puzzlePublishDeadline","type":"uint256","internalType":"uint256"},{"name":"winnerCount","type":"uint8","internalType":"uint8"},{"name":"remainingPrizeWei","type":"uint256","internalType":"uint256"},{"name":"forfeitedDepositsWei","type":"uint256","internalType":"uint256"}]}],"stateMutability":"view"},{"type":"function","name":"getWinners","inputs":[{"name":"contestId","type":"uint256","internalType":"uint256"}],"outputs":[{"name":"","type":"tuple[]","internalType":"struct FirstBloodContest.Winner[]","components":[{"name":"solver","type":"address","internalType":"address"},{"name":"rewardWei","type":"uint256","internalType":"uint256"},{"name":"revealedAt","type":"uint256","internalType":"uint256"},{"name":"rank","type":"uint8","internalType":"uint8"}]}],"stateMutability":"view"},{"type":"function","name":"hasRevealed","inputs":[{"name":"","type":"uint256","internalType":"uint256"},{"name":"","type":"address","internalType":"address"}],"outputs":[{"name":"","type":"bool","internalType":"bool"}],"stateMutability":"view"},{"type":"function","name":"nextContestId","inputs":[],"outputs":[{"name":"","type":"uint256","internalType":"uint256"}],"stateMutability":"view"},{"type":"function","name":"owner","inputs":[],"outputs":[{"name":"","type":"address","internalType":"address"}],"stateMutability":"view"},{"type":"function","name":"publishPuzzle","inputs":[{"name":"contestId","type":"uint256","internalType":"uint256"},{"name":"regionMap","type":"bytes","internalType":"bytes"},{"name":"regionMapCid","type":"string","internalType":"string"}],"outputs":[],"stateMutability":"nonpayable"},{"type":"function","name":"rawFulfillRandomWords","inputs":[{"name":"requestId","type":"uint256","internalType":"uint256"},{"name":"randomWords","type":"uint256[]","internalType":"uint256[]"}],"outputs":[],"stateMutability":"nonpayable"},{"type":"function","name":"refundCancelledDeposit","inputs":[{"name":"contestId","type":"uint256","internalType":"uint256"}],"outputs":[],"stateMutability":"nonpayable"},{"type":"function","name":"regionMaps","inputs":[{"name":"","type":"uint256","internalType":"uint256"}],"outputs":[{"name":"","type":"bytes","internalType":"bytes"}],"stateMutability":"view"},{"type":"function","name":"requestRandomness","inputs":[{"name":"contestId","type":"uint256","internalType":"uint256"}],"outputs":[{"name":"requestId","type":"uint256","internalType":"uint256"}],"stateMutability":"nonpayable"},{"type":"function","name":"revealSolution","inputs":[{"name":"contestId","type":"uint256","internalType":"uint256"},{"name":"solution","type":"bytes","internalType":"bytes"},{"name":"salt","type":"bytes32","internalType":"bytes32"}],"outputs":[],"stateMutability":"nonpayable"},{"type":"function","name":"s_callbackGasLimit","inputs":[],"outputs":[{"name":"","type":"uint32","internalType":"uint32"}],"stateMutability":"view"},{"type":"function","name":"s_keyHash","inputs":[],"outputs":[{"name":"","type":"bytes32","internalType":"bytes32"}],"stateMutability":"view"},{"type":"function","name":"s_requestConfirmations","inputs":[],"outputs":[{"name":"","type":"uint16","internalType":"uint16"}],"stateMutability":"view"},{"type":"function","name":"s_subscriptionId","inputs":[],"outputs":[{"name":"","type":"uint256","internalType":"uint256"}],"stateMutability":"view"},{"type":"function","name":"s_vrfCoordinator","inputs":[],"outputs":[{"name":"","type":"address","internalType":"contract IVRFCoordinatorV2Plus"}],"stateMutability":"view"},{"type":"function","name":"s_vrfRequestToContest","inputs":[{"name":"","type":"uint256","internalType":"uint256"}],"outputs":[{"name":"","type":"uint256","internalType":"uint256"}],"stateMutability":"view"},{"type":"function","name":"scheduleContest","inputs":[{"name":"params","type":"tuple","internalType":"struct FirstBloodContest.ContestParams","components":[{"name":"generatorCodeCid","type":"string","internalType":"string"},{"name":"engineVersion","type":"string","internalType":"string"},{"name":"size","type":"uint8","internalType":"uint8"},{"name":"releaseBlock","type":"uint256","internalType":"uint256"},{"name":"commitWindow","type":"uint256","internalType":"uint256"},{"name":"commitBuffer","type":"uint256","internalType":"uint256"},{"name":"revealWindow","type":"uint256","internalType":"uint256"},{"name":"topN","type":"uint8","internalType":"uint8"},{"name":"entryDepositWei","type":"uint256","internalType":"uint256"},{"name":"prizePoolWei","type":"uint256","internalType":"uint256"},{"name":"sponsor","type":"address","internalType":"address"}]}],"outputs":[{"name":"contestId","type":"uint256","internalType":"uint256"}],"stateMutability":"payable"},{"type":"function","name":"setCallbackGasLimit","inputs":[{"name":"newLimit","type":"uint32","internalType":"uint32"}],"outputs":[],"stateMutability":"nonpayable"},{"type":"function","name":"setCoordinator","inputs":[{"name":"_vrfCoordinator","type":"address","internalType":"address"}],"outputs":[],"stateMutability":"nonpayable"},{"type":"function","name":"transferOwnership","inputs":[{"name":"to","type":"address","internalType":"address"}],"outputs":[],"stateMutability":"nonpayable"},{"type":"function","name":"winners","inputs":[{"name":"","type":"uint256","internalType":"uint256"},{"name":"","type":"uint256","internalType":"uint256"}],"outputs":[{"name":"solver","type":"address","internalType":"address"},{"name":"rewardWei","type":"uint256","internalType":"uint256"},{"name":"revealedAt","type":"uint256","internalType":"uint256"},{"name":"rank","type":"uint8","internalType":"uint8"}],"stateMutability":"view"},{"type":"function","name":"withdrawCancelledPrize","inputs":[{"name":"contestId","type":"uint256","internalType":"uint256"}],"outputs":[],"stateMutability":"nonpayable"},{"type":"function","name":"withdrawRemainingPrize","inputs":[{"name":"contestId","type":"uint256","internalType":"uint256"}],"outputs":[],"stateMutability":"nonpayable"},{"type":"event","name":"ContestCancelled","inputs":[{"name":"contestId","type":"uint256","indexed":true,"internalType":"uint256"},{"name":"reason","type":"uint8","indexed":false,"internalType":"enum FirstBloodContest.CancelReason"}],"anonymous":false},{"type":"event","name":"ContestClosed","inputs":[{"name":"contestId","type":"uint256","indexed":true,"internalType":"uint256"},{"name":"totalWinners","type":"uint8","indexed":false,"internalType":"uint8"},{"name":"prizeRemaining","type":"uint256","indexed":false,"internalType":"uint256"},{"name":"forfeitedDeposits","type":"uint256","indexed":false,"internalType":"uint256"}],"anonymous":false},{"type":"event","name":"ContestScheduled","inputs":[{"name":"contestId","type":"uint256","indexed":true,"internalType":"uint256"},{"name":"generatorCodeCid","type":"string","indexed":false,"internalType":"string"},{"name":"engineVersion","type":"string","indexed":false,"internalType":"string"},{"name":"releaseBlock","type":"uint256","indexed":false,"internalType":"uint256"},{"name":"commitWindow","type":"uint256","indexed":false,"internalType":"uint256"},{"name":"revealWindow","type":"uint256","indexed":false,"internalType":"uint256"},{"name":"topN","type":"uint8","indexed":false,"internalType":"uint8"},{"name":"entryDepositWei","type":"uint256","indexed":false,"internalType":"uint256"}],"anonymous":false},{"type":"event","name":"CoordinatorSet","inputs":[{"name":"vrfCoordinator","type":"address","indexed":false,"internalType":"address"}],"anonymous":false},{"type":"event","name":"DepositRefunded","inputs":[{"name":"contestId","type":"uint256","indexed":true,"internalType":"uint256"},{"name":"solver","type":"address","indexed":true,"internalType":"address"},{"name":"amount","type":"uint256","indexed":false,"internalType":"uint256"}],"anonymous":false},{"type":"event","name":"OwnershipTransferRequested","inputs":[{"name":"from","type":"address","indexed":true,"internalType":"address"},{"name":"to","type":"address","indexed":true,"internalType":"address"}],"anonymous":false},{"type":"event","name":"OwnershipTransferred","inputs":[{"name":"from","type":"address","indexed":true,"internalType":"address"},{"name":"to","type":"address","indexed":true,"internalType":"address"}],"anonymous":false},{"type":"event","name":"PrizeWithdrawn","inputs":[{"name":"contestId","type":"uint256","indexed":true,"internalType":"uint256"},{"name":"solver","type":"address","indexed":true,"internalType":"address"},{"name":"amount","type":"uint256","indexed":false,"internalType":"uint256"}],"anonymous":false},{"type":"event","name":"PuzzlePublished","inputs":[{"name":"contestId","type":"uint256","indexed":true,"internalType":"uint256"},{"name":"puzzleHash","type":"bytes32","indexed":false,"internalType":"bytes32"},{"name":"regionMapCid","type":"string","indexed":false,"internalType":"string"}],"anonymous":false},{"type":"event","name":"RandomnessFulfilled","inputs":[{"name":"contestId","type":"uint256","indexed":true,"internalType":"uint256"},{"name":"vrfRequestId","type":"uint256","indexed":true,"internalType":"uint256"},{"name":"globalSeed","type":"bytes32","indexed":false,"internalType":"bytes32"}],"anonymous":false},{"type":"event","name":"RandomnessRequested","inputs":[{"name":"contestId","type":"uint256","indexed":true,"internalType":"uint256"},{"name":"vrfRequestId","type":"uint256","indexed":true,"internalType":"uint256"}],"anonymous":false},{"type":"event","name":"SolutionCommitted","inputs":[{"name":"contestId","type":"uint256","indexed":true,"internalType":"uint256"},{"name":"solver","type":"address","indexed":true,"internalType":"address"},{"name":"commitHash","type":"bytes32","indexed":false,"internalType":"bytes32"}],"anonymous":false},{"type":"event","name":"SolutionRevealed","inputs":[{"name":"contestId","type":"uint256","indexed":true,"internalType":"uint256"},{"name":"solver","type":"address","indexed":true,"internalType":"address"},{"name":"rank","type":"uint8","indexed":false,"internalType":"uint8"},{"name":"rewardWei","type":"uint256","indexed":false,"internalType":"uint256"},{"name":"isValid","type":"bool","indexed":false,"internalType":"bool"}],"anonymous":false},{"type":"error","name":"AlreadyClosed","inputs":[{"name":"contestId","type":"uint256","internalType":"uint256"}]},{"type":"error","name":"AlreadyCommitted","inputs":[{"name":"contestId","type":"uint256","internalType":"uint256"},{"name":"solver","type":"address","internalType":"address"}]},{"type":"error","name":"AlreadyRevealed","inputs":[{"name":"contestId","type":"uint256","internalType":"uint256"},{"name":"solver","type":"address","internalType":"address"}]},{"type":"error","name":"BlockhashUnavailable","inputs":[{"name":"blockNumber","type":"uint256","internalType":"uint256"}]},{"type":"error","name":"CommitBufferActive","inputs":[{"name":"contestId","type":"uint256","internalType":"uint256"},{"name":"currentBlock","type":"uint256","internalType":"uint256"},{"name":"bufferEndsAt","type":"uint256","internalType":"uint256"}]},{"type":"error","name":"CommitMismatch","inputs":[{"name":"contestId","type":"uint256","internalType":"uint256"},{"name":"solver","type":"address","internalType":"address"}]},{"type":"error","name":"CommitWindowClosed","inputs":[{"name":"contestId","type":"uint256","internalType":"uint256"},{"name":"currentBlock","type":"uint256","internalType":"uint256"},{"name":"windowEndsAt","type":"uint256","internalType":"uint256"}]},{"type":"error","name":"CommitsNotOpen","inputs":[{"name":"contestId","type":"uint256","internalType":"uint256"},{"name":"state","type":"uint8","internalType":"enum FirstBloodContest.ContestState"}]},{"type":"error","name":"ContestNotCancelled","inputs":[{"name":"contestId","type":"uint256","internalType":"uint256"}]},{"type":"error","name":"ContestNotClosed","inputs":[{"name":"contestId","type":"uint256","internalType":"uint256"},{"name":"state","type":"uint8","internalType":"enum FirstBloodContest.ContestState"}]},{"type":"error","name":"ContestNotRandomnessPending","inputs":[{"name":"contestId","type":"uint256","internalType":"uint256"},{"name":"state","type":"uint8","internalType":"enum FirstBloodContest.ContestState"}]},{"type":"error","name":"ContestNotReadyToClose","inputs":[{"name":"contestId","type":"uint256","internalType":"uint256"},{"name":"winnerCount","type":"uint8","internalType":"uint8"},{"name":"topN","type":"uint8","internalType":"uint8"},{"name":"currentBlock","type":"uint256","internalType":"uint256"},{"name":"revealWindowEndsAt","type":"uint256","internalType":"uint256"}]},{"type":"error","name":"DepositRefundFailed","inputs":[{"name":"recipient","type":"address","internalType":"address"},{"name":"amount","type":"uint256","internalType":"uint256"}]},{"type":"error","name":"IncorrectDeposit","inputs":[{"name":"required","type":"uint256","internalType":"uint256"},{"name":"provided","type":"uint256","internalType":"uint256"}]},{"type":"error","name":"InvalidRegionId","inputs":[{"name":"index","type":"uint256","internalType":"uint256"},{"name":"regionId","type":"uint8","internalType":"uint8"},{"name":"maxRegion","type":"uint8","internalType":"uint8"}]},{"type":"error","name":"InvalidRegionMapLength","inputs":[{"name":"actual","type":"uint256","internalType":"uint256"},{"name":"expected","type":"uint256","internalType":"uint256"}]},{"type":"error","name":"InvalidSize","inputs":[{"name":"size","type":"uint8","internalType":"uint8"}]},{"type":"error","name":"InvalidSolutionLength","inputs":[{"name":"actual","type":"uint256","internalType":"uint256"},{"name":"expected","type":"uint256","internalType":"uint256"}]},{"type":"error","name":"NoCommitmentFound","inputs":[{"name":"contestId","type":"uint256","internalType":"uint256"},{"name":"solver","type":"address","internalType":"address"}]},{"type":"error","name":"NoDepositToRefund","inputs":[{"name":"contestId","type":"uint256","internalType":"uint256"},{"name":"solver","type":"address","internalType":"address"}]},{"type":"error","name":"NoRemainingPrize","inputs":[{"name":"contestId","type":"uint256","internalType":"uint256"}]},{"type":"error","name":"NotScheduled","inputs":[{"name":"contestId","type":"uint256","internalType":"uint256"}]},{"type":"error","name":"NotSponsor","inputs":[{"name":"contestId","type":"uint256","internalType":"uint256"},{"name":"caller","type":"address","internalType":"address"}]},{"type":"error","name":"OnlyCoordinatorCanFulfill","inputs":[{"name":"have","type":"address","internalType":"address"},{"name":"want","type":"address","internalType":"address"}]},{"type":"error","name":"OnlyOwnerOrCoordinator","inputs":[{"name":"have","type":"address","internalType":"address"},{"name":"owner","type":"address","internalType":"address"},{"name":"coordinator","type":"address","internalType":"address"}]},{"type":"error","name":"PrizeFundingMismatch","inputs":[{"name":"required","type":"uint256","internalType":"uint256"},{"name":"provided","type":"uint256","internalType":"uint256"}]},{"type":"error","name":"PrizePoolRequired","inputs":[]},{"type":"error","name":"PuzzleAlreadyPublished","inputs":[{"name":"contestId","type":"uint256","internalType":"uint256"}]},{"type":"error","name":"PuzzleNotPublished","inputs":[{"name":"contestId","type":"uint256","internalType":"uint256"}]},{"type":"error","name":"PuzzlePublishDeadlineNotPassed","inputs":[{"name":"contestId","type":"uint256","internalType":"uint256"},{"name":"deadline","type":"uint256","internalType":"uint256"}]},{"type":"error","name":"PuzzlePublishDeadlinePassed","inputs":[{"name":"contestId","type":"uint256","internalType":"uint256"},{"name":"deadline","type":"uint256","internalType":"uint256"}]},{"type":"error","name":"ReentrancyGuardReentrantCall","inputs":[]},{"type":"error","name":"ReleaseBlockMustBeFuture","inputs":[{"name":"releaseBlock","type":"uint256","internalType":"uint256"},{"name":"currentBlock","type":"uint256","internalType":"uint256"}]},{"type":"error","name":"ReleaseBlockNotReached","inputs":[{"name":"releaseBlock","type":"uint256","internalType":"uint256"},{"name":"currentBlock","type":"uint256","internalType":"uint256"}]},{"type":"error","name":"RevealsNotOpen","inputs":[{"name":"contestId","type":"uint256","internalType":"uint256"},{"name":"state","type":"uint8","internalType":"enum FirstBloodContest.ContestState"}]},{"type":"error","name":"RewardTransferFailed","inputs":[{"name":"recipient","type":"address","internalType":"address"},{"name":"amount","type":"uint256","internalType":"uint256"}]},{"type":"error","name":"TopNMustBeGreaterThanZero","inputs":[]},{"type":"error","name":"VRFRequestNotFound","inputs":[{"name":"requestId","type":"uint256","internalType":"uint256"}]},{"type":"error","name":"WithdrawalFailed","inputs":[{"name":"recipient","type":"address","internalType":"address"},{"name":"amount","type":"uint256","internalType":"uint256"}]},{"type":"error","name":"ZeroAddress","inputs":[]}],"bytecode":{"object":"0x608060405234801561001057600080fd5b50604051616b3b380380616b3b833981810160405281019061003291906104f6565b8433806000600161005561004a61025060201b60201c565b61027b60201b60201c565b60000181905550600073ffffffffffffffffffffffffffffffffffffffff168273ffffffffffffffffffffffffffffffffffffffff16036100cb576040517f08c379a00000000000000000000000000000000000000000000000000000000081526004016100c2906105ce565b60405180910390fd5b816000806101000a81548173ffffffffffffffffffffffffffffffffffffffff021916908373ffffffffffffffffffffffffffffffffffffffff160217905550600073ffffffffffffffffffffffffffffffffffffffff168173ffffffffffffffffffffffffffffffffffffffff161461014f5761014e8161028560201b60201c565b5b505050600073ffffffffffffffffffffffffffffffffffffffff168173ffffffffffffffffffffffffffffffffffffffff16036101b8576040517fd92e233d00000000000000000000000000000000000000000000000000000000815260040160405180910390fd5b80600260006101000a81548173ffffffffffffffffffffffffffffffffffffffff021916908373ffffffffffffffffffffffffffffffffffffffff1602179055505083600a8190555082600b8190555081600c60006101000a81548163ffffffff021916908363ffffffff16021790555080600c60046101000a81548161ffff021916908361ffff160217905550505050505061065a565b60007f9b779b17422d0df92223018b32b4d1fa46e071723d6817e2486d003becc55f0060001b905090565b6000819050919050565b3373ffffffffffffffffffffffffffffffffffffffff168173ffffffffffffffffffffffffffffffffffffffff16036102f3576040517f08c379a00000000000000000000000000000000000000000000000000000000081526004016102ea9061063a565b60405180910390fd5b80600160006101000a81548173ffffffffffffffffffffffffffffffffffffffff021916908373ffffffffffffffffffffffffffffffffffffffff1602179055508073ffffffffffffffffffffffffffffffffffffffff1660008054906101000a900473ffffffffffffffffffffffffffffffffffffffff1673ffffffffffffffffffffffffffffffffffffffff167fed8889f560326eb138920d842192f0eb3dd22b4f139c87a2c57538e05bae127860405160405180910390a350565b600080fd5b600073ffffffffffffffffffffffffffffffffffffffff82169050919050565b60006103e1826103b6565b9050919050565b6103f1816103d6565b81146103fc57600080fd5b50565b60008151905061040e816103e8565b92915050565b6000819050919050565b61042781610414565b811461043257600080fd5b50565b6000815190506104448161041e565b92915050565b6000819050919050565b61045d8161044a565b811461046857600080fd5b50565b60008151905061047a81610454565b92915050565b600063ffffffff82169050919050565b61049981610480565b81146104a457600080fd5b50565b6000815190506104b681610490565b92915050565b600061ffff82169050919050565b6104d3816104bc565b81146104de57600080fd5b50565b6000815190506104f0816104ca565b92915050565b600080600080600060a08688031215610512576105116103b1565b5b6000610520888289016103ff565b955050602061053188828901610435565b94505060406105428882890161046b565b9350506060610553888289016104a7565b9250506080610564888289016104e1565b9150509295509295909350565b600082825260208201905092915050565b7f43616e6e6f7420736574206f776e657220746f207a65726f0000000000000000600082015250565b60006105b8601883610571565b91506105c382610582565b602082019050919050565b600060208201905081810360008301526105e7816105ab565b9050919050565b7f43616e6e6f74207472616e7366657220746f2073656c66000000000000000000600082015250565b6000610624601783610571565b915061062f826105ee565b602082019050919050565b6000602082019050818103600083015261065381610617565b9050919050565b6164d2806106696000396000f3fe6080604052600436106101ee5760003560e01c8063885d68a81161010d5780639eccacf6116100a0578063c5b4e9371161006f578063c5b4e9371461073d578063df82135514610768578063ee4efa10146107a5578063f2fde38b146107d5578063f88ea2c9146107fe576101ee565b80639eccacf614610697578063a34d28f5146106c2578063a4eb718c146106eb578063ae201a0214610714576101ee565b80638da5cb5b116100dc5780638da5cb5b146105be5780638ea98117146105e9578063904b9f72146106125780639d7ed73814610650576101ee565b8063885d68a8146104da57806389fb2682146105195780638ac00021146105565780638cd4013214610581576101ee565b80635ad4502b116101855780636b2e95d6116101545780636b2e95d6146104345780637363ae1f1461045d57806379ba50971461049a5780638180cd52146104b1576101ee565b80635ad4502b1461037a578063636ec789146103a5578063660516fc146103ce5780636b1426a4146103f7576101ee565b80631fe543e3116101c15780631fe543e3146102c45780632c5a0ed5146102ed5780633f9a29e91461033357806345bb327b1461034f576101ee565b80630efc8865146101f357806316b5551d146102335780631704eac6146102705780631f7b9e861461029b575b600080fd5b3480156101ff57600080fd5b5061021a60048036038101906102159190614563565b610829565b60405161022a949392919061460f565b60405180910390f35b34801561023f57600080fd5b5061025a60048036038101906102559190614680565b6108a3565b60405161026791906146db565b60405180910390f35b34801561027c57600080fd5b506102856108d2565b60405161029291906146f6565b60405180910390f35b3480156102a757600080fd5b506102c260048036038101906102bd91906147ac565b6108d8565b005b3480156102d057600080fd5b506102eb60048036038101906102e69190614876565b610ddc565b005b3480156102f957600080fd5b50610314600480360381019061030f91906148d6565b610ea2565b60405161032a9a99989796959493929190614989565b60405180910390f35b61034d60048036038101906103489190614a25565b610f10565b005b34801561035b57600080fd5b50610364611482565b6040516103719190614a65565b60405180910390f35b34801561038657600080fd5b5061038f611488565b60405161039c91906146f6565b60405180910390f35b3480156103b157600080fd5b506103cc60048036038101906103c791906148d6565b61148d565b005b3480156103da57600080fd5b506103f560048036038101906103f091906148d6565b61164c565b005b34801561040357600080fd5b5061041e600480360381019061041991906148d6565b6119a9565b60405161042b9190614bb1565b60405180910390f35b34801561044057600080fd5b5061045b600480360381019061045691906148d6565b611aa2565b005b34801561046957600080fd5b50610484600480360381019061047f91906148d6565b611cfa565b60405161049191906146f6565b60405180910390f35b3480156104a657600080fd5b506104af612196565b005b3480156104bd57600080fd5b506104d860048036038101906104d39190614c29565b61232b565b005b3480156104e657600080fd5b5061050160048036038101906104fc9190614680565b612705565b60405161051093929190614cbe565b60405180910390f35b34801561052557600080fd5b50610540600480360381019061053b9190614680565b61273c565b60405161054d9190614d46565b60405180910390f35b34801561056257600080fd5b5061056b6127c5565b60405161057891906146f6565b60405180910390f35b34801561058d57600080fd5b506105a860048036038101906105a391906148d6565b6127cb565b6040516105b591906146f6565b60405180910390f35b3480156105ca57600080fd5b506105d36127e3565b6040516105e09190614d61565b60405180910390f35b3480156105f557600080fd5b50610610600480360381019061060b9190614d7c565b61280c565b005b34801561061e57600080fd5b50610639600480360381019061063491906148d6565b6129ed565b60405161064792919061500a565b60405180910390f35b34801561065c57600080fd5b50610677600480360381019061067291906148d6565b612ce2565b60405161068e9b9a99989796959493929190615085565b60405180910390f35b3480156106a357600080fd5b506106ac612e86565b6040516106b9919061519d565b60405180910390f35b3480156106ce57600080fd5b506106e960048036038101906106e491906148d6565b612eac565b005b3480156106f757600080fd5b50610712600480360381019061070d91906151f4565b613053565b005b34801561072057600080fd5b5061073b600480360381019061073691906148d6565b61307f565b005b34801561074957600080fd5b50610752613326565b60405161075f9190615230565b60405180910390f35b34801561077457600080fd5b5061078f600480360381019061078a91906148d6565b61333c565b60405161079c91906152a0565b60405180910390f35b6107bf60048036038101906107ba919061556c565b6133dc565b6040516107cc91906146f6565b60405180910390f35b3480156107e157600080fd5b506107fc60048036038101906107f79190614d7c565b613847565b005b34801561080a57600080fd5b5061081361385b565b60405161082091906155d2565b60405180910390f35b6006602052816000526040600020818154811061084557600080fd5b9060005260206000209060040201600091509150508060000160009054906101000a900473ffffffffffffffffffffffffffffffffffffffff16908060010154908060020154908060030160009054906101000a900460ff16905084565b60076020528160005260406000206020528060005260406000206000915091509054906101000a900460ff1681565b60095481565b6108e061386f565b600060046000868152602001908152602001600020905060006005600087815260200190815260200160002060003373ffffffffffffffffffffffffffffffffffffffff1673ffffffffffffffffffffffffffffffffffffffff168152602001908152602001600020604051806060016040529081600082015481526020016001820154815260200160028201548152505090506000801b8160000151036109c15785336040517f87a97ac40000000000000000000000000000000000000000000000000000000081526004016109b89291906155ed565b60405180910390fd5b6007600087815260200190815260200160002060003373ffffffffffffffffffffffffffffffffffffffff1673ffffffffffffffffffffffffffffffffffffffff16815260200190815260200160002060009054906101000a900460ff1615610a635785336040517fc339a8ea000000000000000000000000000000000000000000000000000000008152600401610a5a9291906155ed565b60405180910390fd5b60036006811115610a7757610a76614903565b5b8260000160009054906101000a900460ff166006811115610a9b57610a9a614903565b5b14158015610adf575060026006811115610ab857610ab7614903565b5b8260000160009054906101000a900460ff166006811115610adc57610adb614903565b5b14155b15610b3457858260000160009054906101000a900460ff166040517f05bbc998000000000000000000000000000000000000000000000000000000008152600401610b2b929190615616565b60405180910390fd5b600060036000888152602001908152602001600020600501548360030154610b5c919061566e565b905080431015610ba7578643826040517fc45aac0b000000000000000000000000000000000000000000000000000000008152600401610b9e939291906156a2565b60405180910390fd5b50600086338787604051610bbc929190615709565b604051809103902086604051602001610bd894939291906157ac565b60405160208183030381529060405280519060200120905081600001518114610c3a5786336040517f14cfa1c6000000000000000000000000000000000000000000000000000000008152600401610c319291906155ed565b60405180910390fd5b506000610c7e6003600089815260200190815260200160002060020160009054906101000a900460ff168787600860008c8152602001908152602001600020613892565b905060016007600089815260200190815260200160002060003373ffffffffffffffffffffffffffffffffffffffff1673ffffffffffffffffffffffffffffffffffffffff16815260200190815260200160002060006101000a81548160ff021916908315150217905550808015610d2f57506003600088815260200190815260200160002060070160009054906101000a900460ff1660ff168360070160009054906101000a900460ff1660ff16105b15610d4857610d4387848460400151613a62565b610dcb565b600082604001511115610d75578160400151836009016000828254610d6d919061566e565b925050819055505b3373ffffffffffffffffffffffffffffffffffffffff16877ff71c65e82ea2eae406a55ec4b7d7e3406a5b260571b84e4ad44ad3a830988e436000806000604051610dc293929190615866565b60405180910390a35b505050610dd6613e1e565b50505050565b600260009054906101000a900473ffffffffffffffffffffffffffffffffffffffff1673ffffffffffffffffffffffffffffffffffffffff163373ffffffffffffffffffffffffffffffffffffffff1614610e925733600260009054906101000a900473ffffffffffffffffffffffffffffffffffffffff166040517f1cf993f4000000000000000000000000000000000000000000000000000000008152600401610e8992919061589d565b60405180910390fd5b610e9d838383613e39565b505050565b60046020528060005260406000206000915090508060000160009054906101000a900460ff16908060010154908060020154908060030154908060040154908060050154908060060154908060070160009054906101000a900460ff1690806008015490806009015490508a565b600060046000848152602001908152602001600020905060006003600085815260200190815260200160002060405180610160016040529081600082018054610f58906158f5565b80601f0160208091040260200160405190810160405280929190818152602001828054610f84906158f5565b8015610fd15780601f10610fa657610100808354040283529160200191610fd1565b820191906000526020600020905b815481529060010190602001808311610fb457829003601f168201915b50505050508152602001600182018054610fea906158f5565b80601f0160208091040260200160405190810160405280929190818152602001828054611016906158f5565b80156110635780601f1061103857610100808354040283529160200191611063565b820191906000526020600020905b81548152906001019060200180831161104657829003601f168201915b505050505081526020016002820160009054906101000a900460ff1660ff1660ff168152602001600382015481526020016004820154815260200160058201548152602001600682015481526020016007820160009054906101000a900460ff1660ff1660ff1681526020016008820154815260200160098201548152602001600a820160009054906101000a900473ffffffffffffffffffffffffffffffffffffffff1673ffffffffffffffffffffffffffffffffffffffff1673ffffffffffffffffffffffffffffffffffffffff168152505090506002600681111561114e5761114d614903565b5b8260000160009054906101000a900460ff16600681111561117257611171614903565b5b141580156111b657506003600681111561118f5761118e614903565b5b8260000160009054906101000a900460ff1660068111156111b3576111b2614903565b5b14155b1561120b57838260000160009054906101000a900460ff166040517f659aeffd000000000000000000000000000000000000000000000000000000008152600401611202929190615616565b60405180910390fd5b8160040154431061125b57834383600401546040517f4b5d8d7f000000000000000000000000000000000000000000000000000000008152600401611252939291906156a2565b60405180910390fd5b6000801b6005600086815260200190815260200160002060003373ffffffffffffffffffffffffffffffffffffffff1673ffffffffffffffffffffffffffffffffffffffff16815260200190815260200160002060000154146112f75783336040517fd42c39850000000000000000000000000000000000000000000000000000000081526004016112ee9291906155ed565b60405180910390fd5b6000801b82600201540361134257836040517fdffd665800000000000000000000000000000000000000000000000000000000815260040161133991906146f6565b60405180910390fd5b600081610100015111156113a15780610100015134146113a057806101000151346040517fba74eaa3000000000000000000000000000000000000000000000000000000008152600401611397929190615926565b60405180910390fd5b5b6040518060600160405280848152602001438152602001348152506005600086815260200190815260200160002060003373ffffffffffffffffffffffffffffffffffffffff1673ffffffffffffffffffffffffffffffffffffffff1681526020019081526020016000206000820151816000015560208201518160010155604082015181600201559050503373ffffffffffffffffffffffffffffffffffffffff16847f45614c57f96e684bc8265a9c09437b5c859b36f68c6e563ae188e0188818f1d5856040516114749190614a65565b60405180910390a350505050565b600b5481565b606481565b6000600460008381526020019081526020016000209050600460068111156114b8576114b7614903565b5b8160000160009054906101000a900460ff1660068111156114dc576114db614903565b5b148061151d5750600560068111156114f7576114f6614903565b5b8160000160009054906101000a900460ff16600681111561151b5761151a614903565b5b145b1561155f57816040517f5e3e012800000000000000000000000000000000000000000000000000000000815260040161155691906146f6565b60405180910390fd5b60006003600084815260200190815260200160002060070160009054906101000a900460ff1660ff168260070160009054906101000a900460ff1660ff16106115ab57600190506115bc565b816005015443106115bb57600190505b5b8061163e57828260070160009054906101000a900460ff166003600086815260200190815260200160002060070160009054906101000a900460ff164385600501546040517fa9539c6500000000000000000000000000000000000000000000000000000000815260040161163595949392919061594f565b60405180910390fd5b6116478361408c565b505050565b803373ffffffffffffffffffffffffffffffffffffffff1660036000838152602001908152602001600020600a0160009054906101000a900473ffffffffffffffffffffffffffffffffffffffff1673ffffffffffffffffffffffffffffffffffffffff16146116f55780336040517f50339a900000000000000000000000000000000000000000000000000000000081526004016116ec9291906155ed565b60405180910390fd5b6116fd61386f565b60006004600084815260200190815260200160002090506004600681111561172857611727614903565b5b8160000160009054906101000a900460ff16600681111561174c5761174b614903565b5b146117a157828160000160009054906101000a900460ff166040517fe8cb3f52000000000000000000000000000000000000000000000000000000008152600401611798929190615616565b60405180910390fd5b600081600801549050600081036117ef57836040517fab7f41ac0000000000000000000000000000000000000000000000000000000081526004016117e691906146f6565b60405180910390fd5b60008260080181905550600060036000868152602001908152602001600020600a0160009054906101000a900473ffffffffffffffffffffffffffffffffffffffff1673ffffffffffffffffffffffffffffffffffffffff1682604051611855906159c8565b60006040518083038185875af1925050503d8060008114611892576040519150601f19603f3d011682016040523d82523d6000602084013e611897565b606091505b50509050806119155760036000868152602001908152602001600020600a0160009054906101000a900473ffffffffffffffffffffffffffffffffffffffff16826040517f92873d1300000000000000000000000000000000000000000000000000000000815260040161190c9291906159dd565b60405180910390fd5b60036000868152602001908152602001600020600a0160009054906101000a900473ffffffffffffffffffffffffffffffffffffffff1673ffffffffffffffffffffffffffffffffffffffff16857ff3c1367748323bb3414df103a8bfff0ae19678e2dc80b4ef2b1a5016a992272a8460405161199291906146f6565b60405180910390a35050506119a5613e1e565b5050565b606060066000838152602001908152602001600020805480602002602001604051908101604052809291908181526020016000905b82821015611a9757838290600052602060002090600402016040518060800160405290816000820160009054906101000a900473ffffffffffffffffffffffffffffffffffffffff1673ffffffffffffffffffffffffffffffffffffffff1673ffffffffffffffffffffffffffffffffffffffff16815260200160018201548152602001600282015481526020016003820160009054906101000a900460ff1660ff1660ff1681525050815260200190600101906119de565b505050509050919050565b611aaa61386f565b6000600460008381526020019081526020016000209050600680811115611ad457611ad3614903565b5b8160000160009054906101000a900460ff166006811115611af857611af7614903565b5b14611b3a57816040517f514bc331000000000000000000000000000000000000000000000000000000008152600401611b3191906146f6565b60405180910390fd5b60006005600084815260200190815260200160002060003373ffffffffffffffffffffffffffffffffffffffff1673ffffffffffffffffffffffffffffffffffffffff16815260200190815260200160002090506000816002015403611bd95782336040517fa045e076000000000000000000000000000000000000000000000000000000008152600401611bd09291906155ed565b60405180910390fd5b6000816002015490506000826002018190555060003373ffffffffffffffffffffffffffffffffffffffff1682604051611c12906159c8565b60006040518083038185875af1925050503d8060008114611c4f576040519150601f19603f3d011682016040523d82523d6000602084013e611c54565b606091505b5050905080611c9c5733826040517feeb91bbf000000000000000000000000000000000000000000000000000000008152600401611c939291906159dd565b60405180910390fd5b3373ffffffffffffffffffffffffffffffffffffffff16857f69187e59ebb7ab44cba5434886e4e6cde1412568f3483279dc99de772cb2540584604051611ce391906146f6565b60405180910390a350505050611cf7613e1e565b50565b60008060046000848152602001908152602001600020905060006003600085815260200190815260200160002060405180610160016040529081600082018054611d43906158f5565b80601f0160208091040260200160405190810160405280929190818152602001828054611d6f906158f5565b8015611dbc5780601f10611d9157610100808354040283529160200191611dbc565b820191906000526020600020905b815481529060010190602001808311611d9f57829003601f168201915b50505050508152602001600182018054611dd5906158f5565b80601f0160208091040260200160405190810160405280929190818152602001828054611e01906158f5565b8015611e4e5780601f10611e2357610100808354040283529160200191611e4e565b820191906000526020600020905b815481529060010190602001808311611e3157829003601f168201915b505050505081526020016002820160009054906101000a900460ff1660ff1660ff168152602001600382015481526020016004820154815260200160058201548152602001600682015481526020016007820160009054906101000a900460ff1660ff1660ff1681526020016008820154815260200160098201548152602001600a820160009054906101000a900473ffffffffffffffffffffffffffffffffffffffff1673ffffffffffffffffffffffffffffffffffffffff1673ffffffffffffffffffffffffffffffffffffffff1681525050905060006006811115611f3957611f38614903565b5b8260000160009054906101000a900460ff166006811115611f5d57611f5c614903565b5b14611f9f57836040517f200a71ab000000000000000000000000000000000000000000000000000000008152600401611f9691906146f6565b60405180910390fd5b8060600151431015611fee578060600151436040517f864a5462000000000000000000000000000000000000000000000000000000008152600401611fe5929190615926565b60405180910390fd5b60018260000160006101000a81548160ff0219169083600681111561201657612015614903565b5b021790555060006040518060c00160405280600b548152602001600a548152602001600c60049054906101000a900461ffff1661ffff168152602001600c60009054906101000a900463ffffffff1663ffffffff168152602001600163ffffffff168152602001612097604051806020016040528060001515815250614129565b8152509050600260009054906101000a900473ffffffffffffffffffffffffffffffffffffffff1673ffffffffffffffffffffffffffffffffffffffff16639b1c385e826040518263ffffffff1660e01b81526004016120f79190615af7565b6020604051808303816000875af1158015612116573d6000803e3d6000fd5b505050506040513d601f19601f8201168201806040525081019061213a9190615b2e565b9350600185612149919061566e565b600d60008681526020019081526020016000208190555083857f3d94fecedaa4f90b8bd459797adb95f5bb11426025c5541390d9ccc1ad1b60a160405160405180910390a3505050919050565b600160009054906101000a900473ffffffffffffffffffffffffffffffffffffffff1673ffffffffffffffffffffffffffffffffffffffff163373ffffffffffffffffffffffffffffffffffffffff1614612226576040517f08c379a000000000000000000000000000000000000000000000000000000000815260040161221d90615ba7565b60405180910390fd5b60008060009054906101000a900473ffffffffffffffffffffffffffffffffffffffff169050336000806101000a81548173ffffffffffffffffffffffffffffffffffffffff021916908373ffffffffffffffffffffffffffffffffffffffff1602179055506000600160006101000a81548173ffffffffffffffffffffffffffffffffffffffff021916908373ffffffffffffffffffffffffffffffffffffffff1602179055503373ffffffffffffffffffffffffffffffffffffffff168173ffffffffffffffffffffffffffffffffffffffff167f8be0079c531659141344cd1fd0a4f28419497f9722a3daafe3b4186f6b6457e060405160405180910390a350565b843373ffffffffffffffffffffffffffffffffffffffff1660036000838152602001908152602001600020600a0160009054906101000a900473ffffffffffffffffffffffffffffffffffffffff1673ffffffffffffffffffffffffffffffffffffffff16146123d45780336040517f50339a900000000000000000000000000000000000000000000000000000000081526004016123cb9291906155ed565b60405180910390fd5b600060046000888152602001908152602001600020905060006003600089815260200190815260200160002090506002600681111561241657612415614903565b5b8260000160009054906101000a900460ff16600681111561243a57612439614903565b5b1461248f57878260000160009054906101000a900460ff166040517f659aeffd000000000000000000000000000000000000000000000000000000008152600401612486929190615616565b60405180910390fd5b6000801b8260020154146124da57876040517f3d449e590000000000000000000000000000000000000000000000000000000081526004016124d191906146f6565b60405180910390fd5b8160060154431115612529578782600601546040517fea874491000000000000000000000000000000000000000000000000000000008152600401612520929190615926565b60405180910390fd5b60008160020160009054906101000a900460ff1660ff168260020160009054906101000a900460ff1660ff1661255f9190615bc7565b90508088889050146125ad5787879050816040517f357cae030000000000000000000000000000000000000000000000000000000081526004016125a4929190615926565b60405180910390fd5b60005b88889050811015612676578260020160009054906101000a900460ff1660ff168989838181106125e3576125e2615c09565b5b9050013560f81c60f81b60f81c60ff1610612669578089898381811061260c5761260b615c09565b5b9050013560f81c60f81b60f81c8460020160009054906101000a900460ff166040517f34c2217200000000000000000000000000000000000000000000000000000000815260040161266093929190615c38565b60405180910390fd5b80806001019150506125b0565b508787604051612687929190615709565b604051809103902083600201819055508787600860008c815260200190815260200160002091826126b9929190615e1c565b50887f1354677b6c0de264191e1d7b7c10c2d4640248fcb193afc377c7803cf7df00a5846002015488886040516126f293929190615f19565b60405180910390a2505050505050505050565b6005602052816000526040600020602052806000526040600020600091509150508060000154908060010154908060020154905083565b612744614411565b6005600084815260200190815260200160002060008373ffffffffffffffffffffffffffffffffffffffff1673ffffffffffffffffffffffffffffffffffffffff1681526020019081526020016000206040518060600160405290816000820154815260200160018201548152602001600282015481525050905092915050565b600a5481565b600d6020528060005260406000206000915090505481565b60008060009054906101000a900473ffffffffffffffffffffffffffffffffffffffff16905090565b6128146127e3565b73ffffffffffffffffffffffffffffffffffffffff163373ffffffffffffffffffffffffffffffffffffffff161415801561289d5750600260009054906101000a900473ffffffffffffffffffffffffffffffffffffffff1673ffffffffffffffffffffffffffffffffffffffff163373ffffffffffffffffffffffffffffffffffffffff1614155b1561290c57336128ab6127e3565b600260009054906101000a900473ffffffffffffffffffffffffffffffffffffffff166040517f061db9c100000000000000000000000000000000000000000000000000000000815260040161290393929190615f4b565b60405180910390fd5b600073ffffffffffffffffffffffffffffffffffffffff168173ffffffffffffffffffffffffffffffffffffffff1603612972576040517fd92e233d00000000000000000000000000000000000000000000000000000000815260040160405180910390fd5b80600260006101000a81548173ffffffffffffffffffffffffffffffffffffffff021916908373ffffffffffffffffffffffffffffffffffffffff1602179055507fd1a6a14209a385a964d036e404cb5cfb71f4000cdb03c9366292430787261be6816040516129e29190614d61565b60405180910390a150565b6129f5614435565b6129fd6144ab565b60036000848152602001908152602001600020600460008581526020019081526020016000208160405180610160016040529081600082018054612a40906158f5565b80601f0160208091040260200160405190810160405280929190818152602001828054612a6c906158f5565b8015612ab95780601f10612a8e57610100808354040283529160200191612ab9565b820191906000526020600020905b815481529060010190602001808311612a9c57829003601f168201915b50505050508152602001600182018054612ad2906158f5565b80601f0160208091040260200160405190810160405280929190818152602001828054612afe906158f5565b8015612b4b5780601f10612b2057610100808354040283529160200191612b4b565b820191906000526020600020905b815481529060010190602001808311612b2e57829003601f168201915b505050505081526020016002820160009054906101000a900460ff1660ff1660ff168152602001600382015481526020016004820154815260200160058201548152602001600682015481526020016007820160009054906101000a900460ff1660ff1660ff1681526020016008820154815260200160098201548152602001600a820160009054906101000a900473ffffffffffffffffffffffffffffffffffffffff1673ffffffffffffffffffffffffffffffffffffffff1673ffffffffffffffffffffffffffffffffffffffff1681525050915080604051806101400160405290816000820160009054906101000a900460ff166006811115612c5457612c53614903565b5b6006811115612c6657612c65614903565b5b81526020016001820154815260200160028201548152602001600382015481526020016004820154815260200160058201548152602001600682015481526020016007820160009054906101000a900460ff1660ff1660ff16815260200160088201548152602001600982015481525050905091509150915091565b6003602052806000526040600020600091509050806000018054612d05906158f5565b80601f0160208091040260200160405190810160405280929190818152602001828054612d31906158f5565b8015612d7e5780601f10612d5357610100808354040283529160200191612d7e565b820191906000526020600020905b815481529060010190602001808311612d6157829003601f168201915b505050505090806001018054612d93906158f5565b80601f0160208091040260200160405190810160405280929190818152602001828054612dbf906158f5565b8015612e0c5780601f10612de157610100808354040283529160200191612e0c565b820191906000526020600020905b815481529060010190602001808311612def57829003601f168201915b5050505050908060020160009054906101000a900460ff16908060030154908060040154908060050154908060060154908060070160009054906101000a900460ff169080600801549080600901549080600a0160009054906101000a900473ffffffffffffffffffffffffffffffffffffffff1690508b565b600260009054906101000a900473ffffffffffffffffffffffffffffffffffffffff1681565b600060046000838152602001908152602001600020905060026006811115612ed757612ed6614903565b5b8160000160009054906101000a900460ff166006811115612efb57612efa614903565b5b14612f5057818160000160009054906101000a900460ff166040517f659aeffd000000000000000000000000000000000000000000000000000000008152600401612f47929190615616565b60405180910390fd5b6000801b816002015414612f9b57816040517f3d449e59000000000000000000000000000000000000000000000000000000008152600401612f9291906146f6565b60405180910390fd5b80600601544311612fe9578181600601546040517f542b31b9000000000000000000000000000000000000000000000000000000008152600401612fe0929190615926565b60405180910390fd5b60068160000160006101000a81548160ff0219169083600681111561301157613010614903565b5b0217905550817f0b798745a67eb9ad8ebd8510357c500391e6787683e462e46ae147ce3a6f3b6860006040516130479190615fca565b60405180910390a25050565b61305b6141c1565b80600c60006101000a81548163ffffffff021916908363ffffffff16021790555050565b803373ffffffffffffffffffffffffffffffffffffffff1660036000838152602001908152602001600020600a0160009054906101000a900473ffffffffffffffffffffffffffffffffffffffff1673ffffffffffffffffffffffffffffffffffffffff16146131285780336040517f50339a9000000000000000000000000000000000000000000000000000000000815260040161311f9291906155ed565b60405180910390fd5b61313061386f565b600060046000848152602001908152602001600020905060068081111561315a57613159614903565b5b8160000160009054906101000a900460ff16600681111561317e5761317d614903565b5b146131c057826040517f514bc3310000000000000000000000000000000000000000000000000000000081526004016131b791906146f6565b60405180910390fd5b6000816008015490506000810361320e57836040517fab7f41ac00000000000000000000000000000000000000000000000000000000815260040161320591906146f6565b60405180910390fd5b6000826008018190555060003373ffffffffffffffffffffffffffffffffffffffff168260405161323e906159c8565b60006040518083038185875af1925050503d806000811461327b576040519150601f19603f3d011682016040523d82523d6000602084013e613280565b606091505b50509050806132c85733826040517f92873d130000000000000000000000000000000000000000000000000000000081526004016132bf9291906159dd565b60405180910390fd5b3373ffffffffffffffffffffffffffffffffffffffff16857ff3c1367748323bb3414df103a8bfff0ae19678e2dc80b4ef2b1a5016a992272a8460405161330f91906146f6565b60405180910390a3505050613322613e1e565b5050565b600c60009054906101000a900463ffffffff1681565b6008602052806000526040600020600091509050805461335b906158f5565b80601f0160208091040260200160405190810160405280929190818152602001828054613387906158f5565b80156133d45780601f106133a9576101008083540402835291602001916133d4565b820191906000526020600020905b8154815290600101906020018083116133b757829003601f168201915b505050505081565b6000808261012001510361341c576040517fd7dccffa00000000000000000000000000000000000000000000000000000000815260040160405180910390fd5b816101200151341461346c57816101200151346040517f209a912c000000000000000000000000000000000000000000000000000000008152600401613463929190615926565b60405180910390fd5b6005826040015160ff1610806134895750600a826040015160ff16115b156134cf5781604001516040517fbc7c24fd0000000000000000000000000000000000000000000000000000000081526004016134c69190615fe5565b60405180910390fd5b60008260e0015160ff1603613510576040517f263f6fea00000000000000000000000000000000000000000000000000000000815260040160405180910390fd5b4382606001511161355e578160600151436040517f7080b8f5000000000000000000000000000000000000000000000000000000008152600401613555929190615926565b60405180910390fd5b3382610140019073ffffffffffffffffffffffffffffffffffffffff16908173ffffffffffffffffffffffffffffffffffffffff1681525050600960008154809291906135aa90616000565b919050559050816003600083815260200190815260200160002060008201518160000190816135d991906160a3565b5060208201518160010190816135ef91906160a3565b5060408201518160020160006101000a81548160ff021916908360ff160217905550606082015181600301556080820151816004015560a0820151816005015560c0820151816006015560e08201518160070160006101000a81548160ff021916908360ff1602179055506101008201518160080155610120820151816009015561014082015181600a0160006101000a81548173ffffffffffffffffffffffffffffffffffffffff021916908373ffffffffffffffffffffffffffffffffffffffff160217905550905050604051806101400160405280600060068111156136db576136da614903565b5b81526020016000801b81526020016000801b815260200160008152602001600081526020016000815260200160008152602001600060ff168152602001836101200151815260200160008152506004600083815260200190815260200160002060008201518160000160006101000a81548160ff0219169083600681111561376657613765614903565b5b02179055506020820151816001015560408201518160020155606082015181600301556080820151816004015560a0820151816005015560c0820151816006015560e08201518160070160006101000a81548160ff021916908360ff16021790555061010082015181600801556101208201518160090155905050807fd52f034664ee4bb653efee0f6fb9992148f2ea738223f44f652c574d7c9d4a9183600001518460200151856060015186608001518760c001518860e0015189610100015160405161383a9796959493929190616175565b60405180910390a2919050565b61384f6141c1565b61385881614251565b50565b600c60049054906101000a900461ffff1681565b61387761437d565b60026138896138846143be565b6143e9565b60000181905550565b60008460ff1684849050146138aa5760009050613a5a565b600080600060ff905060005b8860ff168160ff161015613a5157600088888360ff168181106138dc576138db615c09565b5b9050013560f81c60f81b60f81c90508960ff168160ff161061390657600095505050505050613a5a565b60008160ff166001901b905060008187161461392b5760009650505050505050613a5a565b80861795506000888360ff168d60ff168660ff166139499190615bc7565b613953919061566e565b815461395e906158f5565b811061396d5761396c615c09565b5b81546001161561398c5790600052602060002090602091828204019190065b9054901a7f01000000000000000000000000000000000000000000000000000000000000000260f81c905060008160ff166001901b90506000818816146139de57600098505050505050505050613a5a565b808717965060008560ff161115613a3d5760008660ff168560ff1611613a0f578487613a0a91906161f2565b613a1c565b8685613a1b91906161f2565b5b905060018160ff1611613a3b5760009950505050505050505050613a5a565b505b8395505050505080806001019150506138b6565b50600193505050505b949350505050565b81600701600081819054906101000a900460ff1680929190613a8390616227565b91906101000a81548160ff021916908360ff1602179055505060008260070160009054906101000a900460ff16905060006003600086815260200190815260200160002060070160009054906101000a900460ff1660ff166003600087815260200190815260200160002060090154613afc919061627f565b905080846008016000828254613b1291906162b0565b925050819055506006600086815260200190815260200160002060405180608001604052803373ffffffffffffffffffffffffffffffffffffffff1681526020018381526020014381526020018460ff16815250908060018154018082558091505060019003906000526020600020906004020160009091909190915060008201518160000160006101000a81548173ffffffffffffffffffffffffffffffffffffffff021916908373ffffffffffffffffffffffffffffffffffffffff160217905550602082015181600101556040820151816002015560608201518160030160006101000a81548160ff021916908360ff160217905550505060003373ffffffffffffffffffffffffffffffffffffffff1682604051613c33906159c8565b60006040518083038185875af1925050503d8060008114613c70576040519150601f19603f3d011682016040523d82523d6000602084013e613c75565b606091505b5050905080613cbd5733826040517fa910a78b000000000000000000000000000000000000000000000000000000008152600401613cb49291906159dd565b60405180910390fd5b6000841115613d77573373ffffffffffffffffffffffffffffffffffffffff1684604051613cea906159c8565b60006040518083038185875af1925050503d8060008114613d27576040519150601f19603f3d011682016040523d82523d6000602084013e613d2c565b606091505b50508091505080613d765733846040517feeb91bbf000000000000000000000000000000000000000000000000000000008152600401613d6d9291906159dd565b60405180910390fd5b5b3373ffffffffffffffffffffffffffffffffffffffff16867ff71c65e82ea2eae406a55ec4b7d7e3406a5b260571b84e4ad44ad3a830988e4385856001604051613dc3939291906162e4565b60405180910390a36003600087815260200190815260200160002060070160009054906101000a900460ff1660ff168560070160009054906101000a900460ff1660ff1610613e1657613e158661408c565b5b505050505050565b6001613e30613e2b6143be565b6143e9565b60000181905550565b6000600d600085815260200190815260200160002054905060008103613e9657836040517f505eb13c000000000000000000000000000000000000000000000000000000008152600401613e8d91906146f6565b60405180910390fd5b6000600182613ea591906162b0565b9050600060046000838152602001908152602001600020905060016006811115613ed257613ed1614903565b5b8160000160009054906101000a900460ff166006811115613ef657613ef5614903565b5b14613f4b57818160000160009054906101000a900460ff166040517f7dc8c530000000000000000000000000000000000000000000000000000000008152600401613f42929190615616565b60405180910390fd5b600060036000848152602001908152602001600020600401549050600060036000858152602001908152602001600020600601549050600087876000818110613f9757613f96615c09565b5b9050602002013585604051602001613fb092919061631b565b6040516020818303038152906040528051906020012090508084600101819055504384600301819055508243613fe6919061566e565b8460040181905550818460040154613ffe919061566e565b8460050181905550606443614013919061566e565b846006018190555060028460000160006101000a81548160ff0219169083600681111561404357614042614903565b5b021790555088857ff08583df698fbc18e549df63e2f88e2920d41a51a461b43c5a65a517db5c64b9836040516140799190614a65565b60405180910390a3505050505050505050565b600060046000838152602001908152602001600020905060048160000160006101000a81548160ff021916908360068111156140cb576140ca614903565b5b0217905550817f0f14b9afadad211da331a2973f974f9ea4357aca525ed27df5a03966e00f8e9a8260070160009054906101000a900460ff168360080154846009015460405161411d93929190616347565b60405180910390a25050565b60607f92fd13387c7fe7befbc38d303d6468778fb9731bc4583f17d92989c6fcfdeaaa8260405160240161415d91906163a9565b604051602081830303815290604052907bffffffffffffffffffffffffffffffffffffffffffffffffffffffff19166020820180517bffffffffffffffffffffffffffffffffffffffffffffffffffffffff83818316178352505050509050919050565b60008054906101000a900473ffffffffffffffffffffffffffffffffffffffff1673ffffffffffffffffffffffffffffffffffffffff163373ffffffffffffffffffffffffffffffffffffffff161461424f576040517f08c379a000000000000000000000000000000000000000000000000000000000815260040161424690616410565b60405180910390fd5b565b3373ffffffffffffffffffffffffffffffffffffffff168173ffffffffffffffffffffffffffffffffffffffff16036142bf576040517f08c379a00000000000000000000000000000000000000000000000000000000081526004016142b69061647c565b60405180910390fd5b80600160006101000a81548173ffffffffffffffffffffffffffffffffffffffff021916908373ffffffffffffffffffffffffffffffffffffffff1602179055508073ffffffffffffffffffffffffffffffffffffffff1660008054906101000a900473ffffffffffffffffffffffffffffffffffffffff1673ffffffffffffffffffffffffffffffffffffffff167fed8889f560326eb138920d842192f0eb3dd22b4f139c87a2c57538e05bae127860405160405180910390a350565b6143856143f3565b156143bc576040517f3ee5aeb500000000000000000000000000000000000000000000000000000000815260040160405180910390fd5b565b60007f9b779b17422d0df92223018b32b4d1fa46e071723d6817e2486d003becc55f0060001b905090565b6000819050919050565b600060026144076144026143be565b6143e9565b6000015414905090565b60405180606001604052806000801916815260200160008152602001600081525090565b6040518061016001604052806060815260200160608152602001600060ff16815260200160008152602001600081526020016000815260200160008152602001600060ff1681526020016000815260200160008152602001600073ffffffffffffffffffffffffffffffffffffffff1681525090565b604051806101400160405280600060068111156144cb576144ca614903565b5b8152602001600080191681526020016000801916815260200160008152602001600081526020016000815260200160008152602001600060ff16815260200160008152602001600081525090565b6000604051905090565b600080fd5b600080fd5b6000819050919050565b6145408161452d565b811461454b57600080fd5b50565b60008135905061455d81614537565b92915050565b6000806040838503121561457a57614579614523565b5b60006145888582860161454e565b92505060206145998582860161454e565b9150509250929050565b600073ffffffffffffffffffffffffffffffffffffffff82169050919050565b60006145ce826145a3565b9050919050565b6145de816145c3565b82525050565b6145ed8161452d565b82525050565b600060ff82169050919050565b614609816145f3565b82525050565b600060808201905061462460008301876145d5565b61463160208301866145e4565b61463e60408301856145e4565b61464b6060830184614600565b95945050505050565b61465d816145c3565b811461466857600080fd5b50565b60008135905061467a81614654565b92915050565b6000806040838503121561469757614696614523565b5b60006146a58582860161454e565b92505060206146b68582860161466b565b9150509250929050565b60008115159050919050565b6146d5816146c0565b82525050565b60006020820190506146f060008301846146cc565b92915050565b600060208201905061470b60008301846145e4565b92915050565b600080fd5b600080fd5b600080fd5b60008083601f84011261473657614735614711565b5b8235905067ffffffffffffffff81111561475357614752614716565b5b60208301915083600182028301111561476f5761476e61471b565b5b9250929050565b6000819050919050565b61478981614776565b811461479457600080fd5b50565b6000813590506147a681614780565b92915050565b600080600080606085870312156147c6576147c5614523565b5b60006147d48782880161454e565b945050602085013567ffffffffffffffff8111156147f5576147f4614528565b5b61480187828801614720565b9350935050604061481487828801614797565b91505092959194509250565b60008083601f84011261483657614835614711565b5b8235905067ffffffffffffffff81111561485357614852614716565b5b60208301915083602082028301111561486f5761486e61471b565b5b9250929050565b60008060006040848603121561488f5761488e614523565b5b600061489d8682870161454e565b935050602084013567ffffffffffffffff8111156148be576148bd614528565b5b6148ca86828701614820565b92509250509250925092565b6000602082840312156148ec576148eb614523565b5b60006148fa8482850161454e565b91505092915050565b7f4e487b7100000000000000000000000000000000000000000000000000000000600052602160045260246000fd5b6007811061494357614942614903565b5b50565b600081905061495482614932565b919050565b600061496482614946565b9050919050565b61497481614959565b82525050565b61498381614776565b82525050565b60006101408201905061499f600083018d61496b565b6149ac602083018c61497a565b6149b9604083018b61497a565b6149c6606083018a6145e4565b6149d360808301896145e4565b6149e060a08301886145e4565b6149ed60c08301876145e4565b6149fa60e0830186614600565b614a086101008301856145e4565b614a166101208301846145e4565b9b9a5050505050505050505050565b60008060408385031215614a3c57614a3b614523565b5b6000614a4a8582860161454e565b9250506020614a5b85828601614797565b9150509250929050565b6000602082019050614a7a600083018461497a565b92915050565b600081519050919050565b600082825260208201905092915050565b6000819050602082019050919050565b614ab5816145c3565b82525050565b614ac48161452d565b82525050565b614ad3816145f3565b82525050565b608082016000820151614aef6000850182614aac565b506020820151614b026020850182614abb565b506040820151614b156040850182614abb565b506060820151614b286060850182614aca565b50505050565b6000614b3a8383614ad9565b60808301905092915050565b6000602082019050919050565b6000614b5e82614a80565b614b688185614a8b565b9350614b7383614a9c565b8060005b83811015614ba4578151614b8b8882614b2e565b9750614b9683614b46565b925050600181019050614b77565b5085935050505092915050565b60006020820190508181036000830152614bcb8184614b53565b905092915050565b60008083601f840112614be957614be8614711565b5b8235905067ffffffffffffffff811115614c0657614c05614716565b5b602083019150836001820283011115614c2257614c2161471b565b5b9250929050565b600080600080600060608688031215614c4557614c44614523565b5b6000614c538882890161454e565b955050602086013567ffffffffffffffff811115614c7457614c73614528565b5b614c8088828901614720565b9450945050604086013567ffffffffffffffff811115614ca357614ca2614528565b5b614caf88828901614bd3565b92509250509295509295909350565b6000606082019050614cd3600083018661497a565b614ce060208301856145e4565b614ced60408301846145e4565b949350505050565b614cfe81614776565b82525050565b606082016000820151614d1a6000850182614cf5565b506020820151614d2d6020850182614abb565b506040820151614d406040850182614abb565b50505050565b6000606082019050614d5b6000830184614d04565b92915050565b6000602082019050614d7660008301846145d5565b92915050565b600060208284031215614d9257614d91614523565b5b6000614da08482850161466b565b91505092915050565b600081519050919050565b600082825260208201905092915050565b60005b83811015614de3578082015181840152602081019050614dc8565b60008484015250505050565b6000601f19601f8301169050919050565b6000614e0b82614da9565b614e158185614db4565b9350614e25818560208601614dc5565b614e2e81614def565b840191505092915050565b6000610160830160008301518482036000860152614e578282614e00565b91505060208301518482036020860152614e718282614e00565b9150506040830151614e866040860182614aca565b506060830151614e996060860182614abb565b506080830151614eac6080860182614abb565b5060a0830151614ebf60a0860182614abb565b5060c0830151614ed260c0860182614abb565b5060e0830151614ee560e0860182614aca565b50610100830151614efa610100860182614abb565b50610120830151614f0f610120860182614abb565b50610140830151614f24610140860182614aac565b508091505092915050565b614f3881614959565b82525050565b61014082016000820151614f556000850182614f2f565b506020820151614f686020850182614cf5565b506040820151614f7b6040850182614cf5565b506060820151614f8e6060850182614abb565b506080820151614fa16080850182614abb565b5060a0820151614fb460a0850182614abb565b5060c0820151614fc760c0850182614abb565b5060e0820151614fda60e0850182614aca565b50610100820151614fef610100850182614abb565b50610120820151615004610120850182614abb565b50505050565b60006101608201905081810360008301526150258185614e39565b90506150346020830184614f3e565b9392505050565b600082825260208201905092915050565b600061505782614da9565b615061818561503b565b9350615071818560208601614dc5565b61507a81614def565b840191505092915050565b60006101608201905081810360008301526150a0818e61504c565b905081810360208301526150b4818d61504c565b90506150c3604083018c614600565b6150d0606083018b6145e4565b6150dd608083018a6145e4565b6150ea60a08301896145e4565b6150f760c08301886145e4565b61510460e0830187614600565b6151126101008301866145e4565b6151206101208301856145e4565b61512e6101408301846145d5565b9c9b505050505050505050505050565b6000819050919050565b600061516361515e615159846145a3565b61513e565b6145a3565b9050919050565b600061517582615148565b9050919050565b60006151878261516a565b9050919050565b6151978161517c565b82525050565b60006020820190506151b2600083018461518e565b92915050565b600063ffffffff82169050919050565b6151d1816151b8565b81146151dc57600080fd5b50565b6000813590506151ee816151c8565b92915050565b60006020828403121561520a57615209614523565b5b6000615218848285016151df565b91505092915050565b61522a816151b8565b82525050565b60006020820190506152456000830184615221565b92915050565b600081519050919050565b600082825260208201905092915050565b60006152728261524b565b61527c8185615256565b935061528c818560208601614dc5565b61529581614def565b840191505092915050565b600060208201905081810360008301526152ba8184615267565b905092915050565b600080fd5b7f4e487b7100000000000000000000000000000000000000000000000000000000600052604160045260246000fd5b6152ff82614def565b810181811067ffffffffffffffff8211171561531e5761531d6152c7565b5b80604052505050565b6000615331614519565b905061533d82826152f6565b919050565b600080fd5b600080fd5b600067ffffffffffffffff821115615367576153666152c7565b5b61537082614def565b9050602081019050919050565b82818337600083830152505050565b600061539f61539a8461534c565b615327565b9050828152602081018484840111156153bb576153ba615347565b5b6153c684828561537d565b509392505050565b600082601f8301126153e3576153e2614711565b5b81356153f384826020860161538c565b91505092915050565b615405816145f3565b811461541057600080fd5b50565b600081359050615422816153fc565b92915050565b6000610160828403121561543f5761543e6152c2565b5b61544a610160615327565b9050600082013567ffffffffffffffff81111561546a57615469615342565b5b615476848285016153ce565b600083015250602082013567ffffffffffffffff81111561549a57615499615342565b5b6154a6848285016153ce565b60208301525060406154ba84828501615413565b60408301525060606154ce8482850161454e565b60608301525060806154e28482850161454e565b60808301525060a06154f68482850161454e565b60a08301525060c061550a8482850161454e565b60c08301525060e061551e84828501615413565b60e0830152506101006155338482850161454e565b610100830152506101206155498482850161454e565b6101208301525061014061555f8482850161466b565b6101408301525092915050565b60006020828403121561558257615581614523565b5b600082013567ffffffffffffffff8111156155a05761559f614528565b5b6155ac84828501615428565b91505092915050565b600061ffff82169050919050565b6155cc816155b5565b82525050565b60006020820190506155e760008301846155c3565b92915050565b600060408201905061560260008301856145e4565b61560f60208301846145d5565b9392505050565b600060408201905061562b60008301856145e4565b615638602083018461496b565b9392505050565b7f4e487b7100000000000000000000000000000000000000000000000000000000600052601160045260246000fd5b60006156798261452d565b91506156848361452d565b925082820190508082111561569c5761569b61563f565b5b92915050565b60006060820190506156b760008301866145e4565b6156c460208301856145e4565b6156d160408301846145e4565b949350505050565b600081905092915050565b60006156f083856156d9565b93506156fd83858461537d565b82840190509392505050565b60006157168284866156e4565b91508190509392505050565b6000819050919050565b61573d6157388261452d565b615722565b82525050565b60008160601b9050919050565b600061575b82615743565b9050919050565b600061576d82615750565b9050919050565b615785615780826145c3565b615762565b82525050565b6000819050919050565b6157a66157a182614776565b61578b565b82525050565b60006157b8828761572c565b6020820191506157c88286615774565b6014820191506157d88285615795565b6020820191506157e88284615795565b60208201915081905095945050505050565b6000819050919050565b600061581f61581a615815846157fa565b61513e565b6145f3565b9050919050565b61582f81615804565b82525050565b600061585061584b615846846157fa565b61513e565b61452d565b9050919050565b61586081615835565b82525050565b600060608201905061587b6000830186615826565b6158886020830185615857565b61589560408301846146cc565b949350505050565b60006040820190506158b260008301856145d5565b6158bf60208301846145d5565b9392505050565b7f4e487b7100000000000000000000000000000000000000000000000000000000600052602260045260246000fd5b6000600282049050600182168061590d57607f821691505b6020821081036159205761591f6158c6565b5b50919050565b600060408201905061593b60008301856145e4565b61594860208301846145e4565b9392505050565b600060a08201905061596460008301886145e4565b6159716020830187614600565b61597e6040830186614600565b61598b60608301856145e4565b61599860808301846145e4565b9695505050505050565b50565b60006159b26000836156d9565b91506159bd826159a2565b600082019050919050565b60006159d3826159a5565b9150819050919050565b60006040820190506159f260008301856145d5565b6159ff60208301846145e4565b9392505050565b615a0f816155b5565b82525050565b615a1e816151b8565b82525050565b600082825260208201905092915050565b6000615a408261524b565b615a4a8185615a24565b9350615a5a818560208601614dc5565b615a6381614def565b840191505092915050565b600060c083016000830151615a866000860182614cf5565b506020830151615a996020860182614abb565b506040830151615aac6040860182615a06565b506060830151615abf6060860182615a15565b506080830151615ad26080860182615a15565b5060a083015184820360a0860152615aea8282615a35565b9150508091505092915050565b60006020820190508181036000830152615b118184615a6e565b905092915050565b600081519050615b2881614537565b92915050565b600060208284031215615b4457615b43614523565b5b6000615b5284828501615b19565b91505092915050565b7f4d7573742062652070726f706f736564206f776e657200000000000000000000600082015250565b6000615b9160168361503b565b9150615b9c82615b5b565b602082019050919050565b60006020820190508181036000830152615bc081615b84565b9050919050565b6000615bd28261452d565b9150615bdd8361452d565b9250828202615beb8161452d565b91508282048414831517615c0257615c0161563f565b5b5092915050565b7f4e487b7100000000000000000000000000000000000000000000000000000000600052603260045260246000fd5b6000606082019050615c4d60008301866145e4565b615c5a6020830185614600565b615c676040830184614600565b949350505050565b600082905092915050565b60008190508160005260206000209050919050565b60006020601f8301049050919050565b600082821b905092915050565b600060088302615cdc7fffffffffffffffffffffffffffffffffffffffffffffffffffffffffffffffff82615c9f565b615ce68683615c9f565b95508019841693508086168417925050509392505050565b6000615d19615d14615d0f8461452d565b61513e565b61452d565b9050919050565b6000819050919050565b615d3383615cfe565b615d47615d3f82615d20565b848454615cac565b825550505050565b600090565b615d5c615d4f565b615d67818484615d2a565b505050565b5b81811015615d8b57615d80600082615d54565b600181019050615d6d565b5050565b601f821115615dd057615da181615c7a565b615daa84615c8f565b81016020851015615db9578190505b615dcd615dc585615c8f565b830182615d6c565b50505b505050565b600082821c905092915050565b6000615df360001984600802615dd5565b1980831691505092915050565b6000615e0c8383615de2565b9150826002028217905092915050565b615e268383615c6f565b67ffffffffffffffff811115615e3f57615e3e6152c7565b5b615e4982546158f5565b615e54828285615d8f565b6000601f831160018114615e835760008415615e71578287013590505b615e7b8582615e00565b865550615ee3565b601f198416615e9186615c7a565b60005b82811015615eb957848901358255600182019150602085019450602081019050615e94565b86831015615ed65784890135615ed2601f891682615de2565b8355505b6001600288020188555050505b50505050505050565b6000615ef8838561503b565b9350615f0583858461537d565b615f0e83614def565b840190509392505050565b6000604082019050615f2e600083018661497a565b8181036020830152615f41818486615eec565b9050949350505050565b6000606082019050615f6060008301866145d5565b615f6d60208301856145d5565b615f7a60408301846145d5565b949350505050565b60018110615f9357615f92614903565b5b50565b6000819050615fa482615f82565b919050565b6000615fb482615f96565b9050919050565b615fc481615fa9565b82525050565b6000602082019050615fdf6000830184615fbb565b92915050565b6000602082019050615ffa6000830184614600565b92915050565b600061600b8261452d565b91507fffffffffffffffffffffffffffffffffffffffffffffffffffffffffffffffff820361603d5761603c61563f565b5b600182019050919050565b60008190508160005260206000209050919050565b601f82111561609e5761606f81616048565b61607884615c8f565b81016020851015616087578190505b61609b61609385615c8f565b830182615d6c565b50505b505050565b6160ac82614da9565b67ffffffffffffffff8111156160c5576160c46152c7565b5b6160cf82546158f5565b6160da82828561605d565b600060209050601f83116001811461610d57600084156160fb578287015190505b6161058582615e00565b86555061616d565b601f19841661611b86616048565b60005b828110156161435784890151825560018201915060208501945060208101905061611e565b86831015616160578489015161615c601f891682615de2565b8355505b6001600288020188555050505b505050505050565b600060e082019050818103600083015261618f818a61504c565b905081810360208301526161a3818961504c565b90506161b260408301886145e4565b6161bf60608301876145e4565b6161cc60808301866145e4565b6161d960a0830185614600565b6161e660c08301846145e4565b98975050505050505050565b60006161fd826145f3565b9150616208836145f3565b9250828203905060ff8111156162215761622061563f565b5b92915050565b6000616232826145f3565b915060ff82036162455761624461563f565b5b600182019050919050565b7f4e487b7100000000000000000000000000000000000000000000000000000000600052601260045260246000fd5b600061628a8261452d565b91506162958361452d565b9250826162a5576162a4616250565b5b828204905092915050565b60006162bb8261452d565b91506162c68361452d565b92508282039050818111156162de576162dd61563f565b5b92915050565b60006060820190506162f96000830186614600565b61630660208301856145e4565b61631360408301846146cc565b949350505050565b6000616327828561572c565b602082019150616337828461572c565b6020820191508190509392505050565b600060608201905061635c6000830186614600565b61636960208301856145e4565b61637660408301846145e4565b949350505050565b616387816146c0565b82525050565b6020820160008201516163a3600085018261637e565b50505050565b60006020820190506163be600083018461638d565b92915050565b7f4f6e6c792063616c6c61626c65206279206f776e657200000000000000000000600082015250565b60006163fa60168361503b565b9150616405826163c4565b602082019050919050565b60006020820190508181036000830152616429816163ed565b9050919050565b7f43616e6e6f74207472616e7366657220746f2073656c66000000000000000000600082015250565b600061646660178361503b565b915061647182616430565b602082019050919050565b6000602082019050818103600083015261649581616459565b905091905056fea2646970667358221220dd3050a70389cb536d78aeae032e4946a20275bd7c7edffc816500f9b8e7628f64736f6c634300081e0033","linkReferences":{}},"methodIdentifiers":{"PUZZLE_PUBLISH_WINDOW()":"5ad4502b","acceptOwnership()":"79ba5097","cancelUnpublishedContest(uint256)":"a34d28f5","closeContest(uint256)":"636ec789","commitSolution(uint256,bytes32)":"3f9a29e9","commits(uint256,address)":"885d68a8","contestStates(uint256)":"2c5a0ed5","contests(uint256)":"9d7ed738","getCommitment(uint256,address)":"89fb2682","getContest(uint256)":"904b9f72","getWinners(uint256)":"6b1426a4","hasRevealed(uint256,address)":"16b5551d","nextContestId()":"1704eac6","owner()":"8da5cb5b","publishPuzzle(uint256,bytes,string)":"8180cd52","rawFulfillRandomWords(uint256,uint256[])":"1fe543e3","refundCancelledDeposit(uint256)":"6b2e95d6","regionMaps(uint256)":"df821355","requestRandomness(uint256)":"7363ae1f","revealSolution(uint256,bytes,bytes32)":"1f7b9e86","s_callbackGasLimit()":"c5b4e937","s_keyHash()":"45bb327b","s_requestConfirmations()":"f88ea2c9","s_subscriptionId()":"8ac00021","s_vrfCoordinator()":"9eccacf6","s_vrfRequestToContest(uint256)":"8cd40132","scheduleContest((string,string,uint8,uint256,uint256,uint256,uint256,uint8,uint256,uint256,address))":"ee4efa10","setCallbackGasLimit(uint32)":"a4eb718c","setCoordinator(address)":"8ea98117","transferOwnership(address)":"f2fde38b","winners(uint256,uint256)":"0efc8865","withdrawCancelledPrize(uint256)":"ae201a02","withdrawRemainingPrize(uint256)":"660516fc"},"id":32}